:0400000075EF32F076
:1064DE00C69A1200016E01C0ADFF1200000EF86EDA
:1064EE0000012AEF38F08CEC32F0C582C5A2120002
:1064FE00FDD78CEC32F0C580C5A01200FDD78CEC18
:10650E0032F0C584C5A41200FDD7C7A403D0016A1A
:10651E00012A01D0016AC5501F0B0110D8B4120018
:10652E00F4D7016E3F0EC716C66AC56AC686C78EF9
:10653E0094869488C68A01C0C8FF1200036E026A50
:10654E003A0E036005D02F0E036402D0010E026EC8
:10655E0002C001F0013012000150021003100410AD
:10656E0002E0800E041A01C001F002C002F003C066
:10657E0003F004C004F01200046A056A09D0030E89
:10658E00036E980EE82EFED7032EFCD7044A052A7A
:10659E000150045C02500558D8B01200F0D70150DB
:1065AE000302F3CF05F0F4CF06F001500402F350CE
:1065BE00062602500302F350062605C001F006C05F
:1065CE0002F01200026E080E036E046AD8900234B6
:1065DE000434046ED89002360150045C02E301507C
:1065EE00045E032EF3D704501200026E8CEC32F0D0
:1065FE0002C0C9FFC6BE0DD0C6500F0B080A04E07C
:10660E00C6500F0B0B0A05E1C7B0FED78CEC32F06B
:10661E00C550120080EC32F0200EFCEC32F0030E6E
:10662E00FCEC32F07AEC32F0210EFCEC32F0000E83
:10663E0088EC33F0046E86EC32F0045012000BC07E
:10664E0001F00CC002F0036A046A960E056E000E8D
:10665E00066E7AEC36F001C00BF002C00CF003C0EF
:10666E000DF004C00EF012000BC001F00CC002F0D1
:10667E000DC003F00EC004F0960E056E000E066EF1
:10668E007AEC36F001C00BF002C00CF003C00DF036
:10669E0004C00EF01200066E086A055014E0010EDA
:1066AE00076E03D0D8900536072A05AEFBD7D890D3
:1066BE0008360550065C03E30550065E0880D89048
:1066CE000532072EF4D70850120080EC32F0200E5F
:1066DE00FCEC32F0010EFCEC32F07AEC32F0210ED2
:1066EE00FCEC32F0010E88EC33F0066E000E88ECF6
:1066FE0033F0076E86EC32F006C004F007C005F0EA
:10670E001200026E8CEC32F0C6500F0B080A04E039
:10671E00C6500F0B0B0AD8B4C586C7A0FED7C9CF7B
:10672E0003F08CEC32F0020405E1C59AC588C5A8C9
:10673E0005D0FDD7C58AC588C5B8FED7035012004F
:10674E003F5040104110421002E0800E421A3BC0F2
:10675E002FF03CC030F03DC031F03EC032F03FC0B3
:10676E0033F040C034F041C035F042C036F0A9ECF1
:10677E0038F02FC03BF030C03CF031C03DF032C09D
:10678E003EF012000F6A0EAE0AD00E1E0D1E0C1E2B
:10679E000B6C000E0C220D220E22010E0F6E0BC082
:1067AE0001F00CC002F00DC003F00EC004F0960E06
:1067BE00056E0FC006F07AEC36F001C00BF002C089
:1067CE000CF003C00DF004C00EF0120004AE09D0A0
:1067DE00016C021ED8B0022A031ED8B0032A800E06
:1067EE00045608AE09D0056C061ED8B0062A071E40
:1067FE00D8B0072A800E0856800E041A081A0550C3
:10680E00015C06500258075003580850045802E223
:10681E00D89001D0D8801200ACA2FED702C0F6FFED
:10682E0003C0F7FFF86A050EF76403D00800F550B1
:10683E0005D0F6CFE9FFF7CFEAFFEF5071EC32F05B
:10684E000250046E0350056E024A032A04C0F6FF7E
:10685E0005C0F7FFF86A050EF76403D00800F5507F
:10686E0005D0F6CFE9FFF7CFEAFFEF500009D8B415
:10687E001200D2D7125013101410151023E0010E6F
:10688E00166E06D0D8901236133614361536162AD2
:10689E0015AEF8D712500E5C13500F5814501058F6
:1068AE001550115808E312500E5E13500F5A145023
:1068BE00105A1550115AD890153214321332123212
:1068CE00162EE8D70EC00EF00FC00FF010C010F04D
:1068DE0011C011F01200066A02AE06D0016C021E43
:1068EE00D8B0022A010E066E04AE04D0036C041E4C
:1068FE00D8B0042A0350041017E0010E056E04D020
:10690E00D89003360436052A04AEFAD70350015C3C
:10691E000450025804E30350015E0450025AD8900A
:10692E0004320332052EF2D7065004E0016C021E2B
:10693E00D8B0022A01C001F002C002F01200096AAA
:10694E000A6A0B6A0C6A055006100710081029E037
:10695E00010E0D6E06D0D89005360636073608366F
:10696E000D2A08AEF8D7D89009360A360B360C36F3
:10697E000550015C06500258075003580850045841
:10698E0009E30550015E0650025A0750035A08509B
:10699E00045A0980D89008320732063205320D2E7D
:1069AE00E2D709C001F00AC002F00BC003F00CC020
:1069BE0004F012000C6A0AAE06D0096C0A1ED8B09A
:1069CE000A2A010E0C6E08AE06D0076C081ED8B04F
:1069DE00082A010E0C1A0D6A0E6A09500A101BE0E5
:1069EE00010E0B6E04D0D89009360A360B2A0AAE69
:1069FE00FAD7D8900D360E360950075C0A50085853
:106A0E0005E30950075E0A50085A0D80D8900A32E5
:106A1E0009320B2EEED70C5004E00D6C0E1ED8B0C2
:106A2E000E2A0DC007F00EC008F0120029342A34C9
:106A3E00306E305005E1276A286A296A2A6A43D0E7
:106A4E0027C02BF028C02CF029C02DF02AC02EF024
:106A5E00200E05D0D8902E322D322C322B32E82E2D
:106A6E00F9D72B502F6E298E2A6A960E305E30AED5
:106A7E000CD03050800A970FDEE3D8902A3229329C
:106A8E0028322732303EF9D70CD01F0E306407D093
:106A9E00D2D7D8902736283629362A3630063050A7
:106AAE00F8E12F5008E02A1E291E281E276C000E22
:106ABE00282229222A2227C027F028C028F029C000
:106ACE0029F02AC02AF012003D343E34486E485058
:106ADE0005E041344234496E495005E13B6A3C6A57
:106AEE003D6A3E6A43D04950890F485E3EC049F028
:106AFE004250491A800E49163D8E3E6A418E426AB8
:106B0E00200E476ED89043364436453646363F50B3
:106B1E003B5C40503C5841503D5842503E5809E372
:106B2E003F503B5E40503C5A41503D5A42503E5AB7
:106B3E004380D8903B363C363D363E36472EE2D724
:106B4E0043C001F044C002F045C003F046C004F05B
:106B5E0048C005F049C006F07AEC36F001C03BF0B3
:106B6E0002C03CF003C03DF004C03EF012001134F0
:106B7E001234176E175005E0153416341D6E1D5065
:106B8E0005E10F6A106A116A126A3DD01D507B0F23
:106B9E00172612C01DF016501D1A800E1D16118ECE
:106BAE00158E000E1616186A196A1A6A1B6A070ED7
:106BBE001C6E0FB029D831D813361436153616364A
:106BCE001C2EF7D7110E1C6E0FB01ED826D81B32F6
:106BDE001A32193218321C2EF7D718C001F019C00C
:106BEE0002F01AC003F01BC004F017C005F01DC060
:106BFE0006F07AEC36F001C00FF002C010F003C0C0
:106C0E0011F004C012F0120013501826145019225D
:106C1E0015501A2216501B221200D8901232113221
:106C2E0010320F32D8901200033404340E6E0E5010
:106C3E0005E1016A026A036A046A54D00734083413
:106C4E000D6E0D50F6E0038E046A078E086A096A0F
:106C5E000A6A0B6A0C6A7F0E0E5E0D50A00F0E5E56
:106C6E00200E0D6ED89009360A360B360C360550AE
:106C7E00015C06500258075003580850045809E3A7
:106C8E000550015E0650025A0750035A0850045A26
:106C9E000980D89001360236033604360D2EE2D71F
:106CAE000EAE0CD00E50800A9F0FC3E3D8900C325C
:106CBE000B320A3209320E3EF9D70CD01F0E0E647B
:106CCE0007D0B7D7D89009360A360B360C360E06D3
:106CDE000E50F8E109C001F00AC002F00BC003F03B
:106CEE000CC004F01200055005E001500210031014
:106CFE00041007E1016A026A036A046A4ED0052A8B
:106D0E004DD8076A086A096AFE0E04140A6E075007
:106D1E00081009100A1008E0F2D7052A012A000E01
:106D2E000222032204223AD8076A086A096A04502A
:106D3E000A6E0750081009100A1007E0EED7050674
:106D4E00D890013602360336043603BE03D0020E47
:106D5E000560F5D705B002D07F0E0316D890053228
:106D6E0005C007F0086A096A0A6A07C00AF0096ACC
:106D7E00086A076A075001120850021209500312DE
:106D8E000A5004120650D8A4048E01C001F002C0AD
:106D9E0002F003C003F004C004F01200D8900432D5
:106DAE00033202320132120003C009F00A6A0B6A82
:106DBE000234093601E30A800950116E115005E1C3
:106DCE00016A026A036A046A56D007C009F00A6AA9
:106DDE000B6A0634093601E30A800950106E105012
:106DEE00EFE0028E036A068E076A0C6A0D6A0E6A5F
:106DFE000F6A7F0E115E1050980F115E180E106EF6
:106E0E00D8900C360D360E360F360550015C0650F6
:106E1E0002580750035807E30550015E0650025A08
:106E2E000750035A0C80D890013602360336102EC6
:106E3E00E7D711AE0CD01150800A970FC1E3D8904E
:106E4E000F320E320D320C32113EF9D70CD0170E16
:106E5E00116407D0B5D7D8900C360D360E360F36D6
:106E6E0011061150F8E10CC001F00DC002F00EC079
:106E7E0003F00FC004F0120080EC32F0200EFCEC98
:106E8E0032F0160EFCEC32F07AEC32F0210EFCEC05
:106E9E0032F0010E88EC33F0566E000E88EC33F0B3
:106EAE00576E86EC32F080EC32F0200EFCEC32F0B5
:106EBE00170EFCEC32F07AEC32F0210EFCEC32F0D4
:106ECE00010E88EC33F0586E000E88EC33F0596EDC
:106EDE0086EC32F058504E6E59504F6E506A516AD1
:106EEE004FC051F04EC050F04F6A4E6A56504E246D
:106EFE000B6E57504F200C6E000E50200D6E000E74
:106F0E0051200E6EC9EC33F00BC03BF00CC03CF0C0
:106F1E000DC03DF00EC03EF0000E3F6E406E800E76
:106F2E00416E470E426E6BEC35F03BC052F03CC0EA
:106F3E0053F03DC054F03EC055F052C04AF053C01D
:106F4E004BF054C04CF055C04DF0120080EC32F0B6
:106F5E00200EFCEC32F0180EFCEC32F07AEC32F033
:106F6E00210EFCEC32F0010E88EC33F0526E000E66
:106F7E0088EC33F0536E86EC32F080EC32F0200E5B
:106F8E00FCEC32F0190EFCEC32F07AEC32F0210E01
:106F9E00FCEC32F0010E88EC33F0546E000E88ECEF
:106FAE0033F0556E86EC32F0136A146A800E156E4D
:106FBE00470E166E54C00BF055C00CF026EC33F095
:106FCE000BC00FF00CC010F00DC011F00EC012F07F
:106FDE00BEEC35F00FC033F010C034F011C035F0F8
:106FEE0012C036F052C00BF053C00CF026EC33F04A
:106FFE000BC02FF00CC030F00DC031F00EC032F0CF
:10700E00A9EC38F02FC03BF030C03CF031C03DF061
:10701E0032C03EF0000E3F6E406E416E4B0E426E21
:10702E006BEC35F03BC04EF03CC04FF03DC050F025
:10703E003EC051F04EC04AF04FC04BF050C04CF025
:10704E0051C04DF01200720ED36E0F0EC16E070EB0
:10705E00B46E926A9368B90E946E260EAC6E900E54
:10706E00AB6E0A0EB86E100EAF6E6FEC32F0130EE2
:10707E0098EC32F0820E7F6EDE0EE82EFED77F2E5B
:10708E00FCD7B30E026E7F0E036E13EC34F0F00ECF
:10709E00026E7F0E036E13EC34F0DE0E5A6E7F0E10
:1070AE005B6E6CEC33F004C05CF005C05DF0800EDE
:1070BE0059EC3BF0800E026E036A13EC34F0CC0EEA
:1070CE005A6E7F0E5B6E11EC33F05C6E5D6A800E55
:1070DE0059EC3BF0800E026E036A13EC34F09A0EFC
:1070EE005A6E7F0E5B6EADEC37F04AC05CF04BC053
:1070FE005DF04CC05EF04DC05FF0800E59EC3BF081
:10710E00800E026E036A13EC34F07F0E5A6E7F0E01
:10711E005B6E43EC37F04AC05CF04BC05DF04CC088
:10712E005EF04DC05FF0800E59EC3BF0800E026EAB
:10713E00036A13EC34F0010E026EF40E016EC3EC12
:10714E0032F0ABD7313432343A6E35343634396EA0
:10715E003A5009E039503A5C0FE23A50395C376EDA
:10716E00200E376409D033C02FF034C030F035C054
:10717E0031F036C032F088D0395009E03A50395CDF
:10718E000FE239503A5C376E200E376409D02FC0AB
:10719E002FF030C030F031C031F032C032F074D048
:1071AE00060E386E32BE388E36BE388C318E326A4E
:1071BE00358E366A39503A5C1AE2D8903336343608
:1071CE003536363639063A5039180DE0380638C09D
:1071DE0037F0070E371607E0F0D7D890323231323B
:1071EE0030322F323A2A39503A181DE0F6D73A503B
:1071FE00395C19E2D8902F363036313632363A06AF
:10720E003A5039180DE0380638C037F0070E3716E9
:10721E0007E0F0D7D8903632353234323332392A4D
:10722E0039503A18F7E138AE09D02F1E301E311EF4
:10723E00321E2F2A000E30223122322238BC25D89F
:10724E00386A2F5033263050342231503522325086
:10725E00362236AE03D019D8010E386E33C001F087
:10726E0034C002F035C003F036C004F03AC005F069
:10727E0038C006F07AEC36F001C02FF002C030F0C4
:10728E0003C031F004C032F01200331E341E351E1E
:10729E00361E332A000E342235223622000C2E6E74
:1072AE006D0E2E6459D00A0E056E640E016E2E50B0
:1072BE00E9EC32F052EC33F0226E236AD89022368B
:1072CE002336D89022362336240E2226000E232271
:1072DE00EF0E2224F66E7E0E2320F9EC3AF0640EA9
:1072EE00056E2E5052EC33F094D8480E82D807EC2F
:1072FE003BF0BEEC35F00FC02AF010C02BF011C0E1
:10730E002CF012C02DF00A0E016E2E50E9EC32F068
:10731E00226E236AD89062D8F9EC3AF02AC00FF0A8
:10732E002BC010F02CC011F02DC012F0BEEC35F0B9
:10733E000FC026F010C027F011C028F012C029F09F
:10734E0026C00FF027C010F028C011F029C012F08F
:10735E0059D8BEEC35F039D00A0E2E642AD0016E03
:10736E002E50E9EC32F0226E236AD89037D8F9EC21
:10737E003AF00A0E056E2E5052EC33F04AD8240E17
:10738E0038D807EC3BF0BEEC35F00FC02AF010C039
:10739E002BF011C02CF012C02DF02AC00FF02BC014
:1073AE0010F02CC011F02DC012F02CD8BEEC35F020
:1073BE000CD02E50040DEF0EF324F66E7E0EF4203C
:1073CE0007EC3BF01FD8BEEC35F00FC01EF010C01E
:1073DE001FF011C020F012C021F012002236233609
:1073EE00D89022362336EF0E2224F66E7E0E232000
:1073FE0012002426000E2522EF0E2424F66E7E0E99
:10740E0025201200000E136E146E156E3F0E166EB2
:10741E003F0C246E256AD89024362536D890243613
:10742E0025361200266E26AE64D0266C2650800AB3
:10743E00120F37E30A6A0A0E096E046A640E28D91F
:10744E0001BE020672EC34F001C007F002C008F073
:10745E00E1EC34F0E3D8EF0E0724F66E7E0E082032
:10746E00C1D80A6A640E19D907BE0806E1EC34F0D9
:10747E00D890E6D8EF0E0724F66E7E0E0820C0D800
:10748E00BEEC35F0E7D801BE020672EC34F0D1D86E
:10749E00EF0E0124F66E7E0E0220A4D8BEEC35F05F
:1074AE0083D02650800A750F1DE30A6A0A0EF5D89E
:1074BE0007BE0806E1EC34F0B1D8EF0E0724F66EE5
:1074CE007E0E08209DD8DDD801BE020672EC34F087
:1074DE00B0D8EF0E0124F66E7E0E022083D8BEECDD
:1074EE0035F062D02650040DEF0EF324F66E7E0EAC
:1074FE006AD02650800A120F37E30A6A0A0E096E06
:10750E00046A640EC5D801BE020672EC34F001C0E6
:10751E0007F002C008F0E1EC34F080D8230E072407
:10752E00F66E7F0E08205ED80A6A640EB6D807BEC5
:10753E000806E1EC34F0D89083D8230E0724F66EBB
:10754E007F0E08205DD8BEEC35F084D801BE020651
:10755E0072EC34F06ED8230E0124F66E7F0E0220EC
:10756E0041D8BEEC35F020D02650800A750F25E3A9
:10757E000A6A0A0E92D807BE0806E1EC34F04ED81D
:10758E00230E0724F66E7F0E08203AD87AD801BE55
:10759E00020672EC34F04DD8230E0124F66E7F0EE7
:1075AE00022020D8BEEC35F00FC01EF010C01FF028
:1075BE0011C020F012C021F014D02650040D230E5D
:1075CE00F324F66E7F0EF420F76E0900F5CF1EF051
:1075DE000900F5CF1FF00900F5CF20F00A00F5CF16
:1075EE0021F01200F76E0900F5CF13F00900F5CF68
:1075FE0014F00900F5CF15F00A00F5CF16F01200C1
:10760E00F76E0900F5CF0FF00900F5CF10F0090065
:10761E00F5CF11F00A00F5CF12F01200D890073610
:10762E000836D89007360836240E0726000E082294
:10763E00000CD89001360236D89001360236120070
:10764E0007360836D89007360836480E0726000E3D
:10765E000822000C0FC022F010C023F011C024F03D
:10766E0012C025F022C00FF023C010F024C011F07C
:10767E0025C012F0046A0A0E036E2650016E026ACD
:10768E001200046A0A0E036E2650016E026A120080
:10769E00036E2650016E026A1200096E2650076EA6
:1076AE00086A12007D6E5C0E686E99D3250E7E18E8
:1076BE0007E07D50D96EDA6A7EC0DFFF7D2A8FD358
:1076CE00756A766A736A746A03D073845A4A5B2A3F
:1076DE009ADB300AFAE097DBA5EC32F023E3756A09
:1076EE00766A75C001F076C002F0046A0A0E036E67
:1076FE00D6EC32F001C075F002C076F0D00E606E9E
:10770E00616881DB626E636A60506226615063223B
:10771E0062507526635076225A4A5B2A74DBA5ECBA
:10772E0032F0DFE270DB2E0A20E1748C5A4A5B2ABB
:10773E007B6A7C6A15D07BC001F07CC002F0046AC3
:10774E000A0E036ED6EC32F05EDB0126000E02222C
:10775E00D00E01247B6EFF0E02207C6E5A4A5B2AED
:10776E0052DBA5EC32F007E3E6D77B6A7C6A7488BD
:10777E0002D074840CD05AC0F6FF9ADB01E134D3E8
:10778E00640A05E0020AF5E00F0A01E028D3070EAD
:10779E00741401E14BD274A803D07C6A060E7B6E82
:1077AE006850D96EDA6ADECF77F0DECF78F0DECFB2
:1077BE0079F0DECF7AF0040E68267AAE14D077C058
:1077CE0001F078C002F079C003F07AC004F0B3EC97
:1077DE0032F001C077F002C078F003C079F004C037
:1077EE007AF0030E7312716A726A775078107910FC
:1077FE007A1065E079347A34820F716E726AFF0EF8
:10780E0072227106D8A0720671C001F072C002F029
:10781E00046A030E036ED6EC32F001C071F002C0A2
:10782E0072F071C007F072C008F00A6A0A0E096E93
:10783E00E1EC34F007C071F008C072F072AE03D004
:10784E007106D8A072067150000819EC3AF01EC0ED
:10785E0069F01FC06AF020C06BF021C06CF069C0E7
:10786E000FF06AC010F06BC011F06CC012F077C050
:10787E0013F078C014F079C015F07AC016F0BEEC93
:10788E0035F00FC069F010C06AF011C06BF012C075
:10789E006CF003DB800E076E3F0E086EEDEC33F0DE
:1078AE0004E27106D8A072060AD0F7DA200E076E2F
:1078BE00410E086EEDEC33F002E3714A722A7CBE83
:1078CE0005D07C5020E10D0E7B5C1DE277C02FF0C1
:1078DE0078C030F079C031F07AC032F07B5056EC7F
:1078EE0039F01EC033F01FC034F020C035F021C077
:1078FE0036F0A9EC38F02FC077F030C078F031C0F8
:10790E0079F032C07AF072BE05D072501EE10A0EC6
:10791E00715C1BE27750781079107A1058E077C0BE
:10792E0027F078C028F079C029F07AC02AF01DEC33
:10793E0035F02750281029102A10D8B472BE47D01F
:10794E00725003E1020E715C42E369C001F06AC03D
:10795E0002F06BC003F06CC004F05F0E056E700E8B
:10796E00066E890E076E400E086EEDEC33F0F70EC4
:10797E00D8B0F80E7126FF0E7222715019EC3AF043
:10798E001EC069F01FC06AF020C06BF021C06CF001
:10799E0077C001F078C002F079C003F07AC004F02D
:1079AE0069C005F06AC006F06BC007F06CC008F045
:1079BE001BEC36F001C06DF002C06EF003C06FF02C
:1079CE0004C070F0776A786A796A7A6A38D077C0BC
:1079DE0027F078C028F079C029F07AC02AF01DEC83
:1079EE0035F027C06DF028C06EF029C06FF02AC0A8
:1079FE0070F077C03BF078C03CF079C03DF07AC0B3
:107A0E003EF06DC00BF06EC00CF06FC00DF070C08C
:107A1E000EF03BEC33F00BC03FF00CC040F00DC04D
:107A2E0041F00EC042F0A7EC33F03BC077F03CC003
:107A3E0078F03DC079F03EC07AF0716A726A010E3C
:107A4E007E6ED7D91EDA04E37E2A0A0E7E18F9E17D
:107A5E007EC060F0616A60BE61067B5060267C501D
:107A6E00612271506026725061226050755E6150C5
:107A7E00765A7B507C1003E07506D8A0760673C04C
:107A8E0060F0030E601603E07506D8A0760673A4A8
:107A9E0015D073C060F0030E601606E01ADA04D03B
:107AAE00E9D97506D8A0760676BE2BD07650F8E1C9
:107ABE00750427E3F5D705DAD8A0760676BE04D08E
:107ACE007650F9E17504F7E273C060F0030E6016AC
:107ADE0018E07D50D96EDA6A2D0EDF6E7D2A11D038
:107AEE006DC001F06EC002F06FC003F070C004F004
:107AFE0080D9A6D9A6EC34F08DD941EC34F0ACD9AE
:107B0E00ECD77E067E2805E0EBD7B4D97106D8A057
:107B1E00720672BE04D07250F8E17104F6E27CBEB9
:107B2E0008D07C5003E1090E7B5C03E3080E7E6EE9
:107B3E0002D07BC07EF07E507B5E000E7EBEFF0EBE
:107B4E007C5A7E5006E07D50D96EDA6A2E0EDF6EBC
:107B5E007D2A7E5019EC3AF01EC064F01FC065F00D
:107B6E0020C066F021C067F077C013F078C014F023
:107B7E0079C015F07AC016F064C00FF065C010F031
:107B8E0066C011F067C012F0BEEC35F00FC027F0E2
:107B9E0010C028F011C029F012C02AF01DEC35F0EB
:107BAE0027C06DF028C06EF029C06FF02AC070F0AB
:107BBE0030D06DC001F06EC002F06FC003F070C027
:107BCE0004F017D93DD9A6EC34F024D941EC34F0A9
:107BDE0043D9DF6E7D2A6DC00EF06EC00FF06FC000
:107BEE0010F070C011F005D9F5CF12F00900F5CFE5
:107BFE0013F00900F5CF14F00A00F5CF15F041ECA3
:107C0E0034F00EC06DF00FC06EF010C06FF011C0EA
:107C1E0070F07E067E2805E0CCD72CD97B06D8A046
:107C2E007C067B507C1001E1DAD0F7D76850D96E14
:107C3E00DA6ADECF6DF0DDCF6EF0000E6EBEFF0E97
:107C4E006F6E706E020E682670AE0AD0030E73123F
:107C5E00701E6F1E6E1E6D6C000E6E226F227022D5
:107C6E007B507C1007E16D506E106F10701002E1AA
:107C7E007B4A7C2A010E7E6EBCD803D904E37E2A91
:107C8E000A0E7E18F9E1800E7EBE7F0E606E7B506E
:107C9E007E5C7C50800A605803E27BC07EF00FD081
:107CAE007C50800A606E7E507B5C800E7EBE7F0EA6
:107CBE00605805E27E507B6E7C6A7BBE7C067550FA
:107CCE00761008E073C060F0030E601603E07506D0
:107CDE00D8A0760674AC10D075507B5C7C50800AB0
:107CEE00606E7650800A605805E27B50755E7C505F
:107CFE00765A02D0756A766A800E7EBE7F0E606EF0
:107D0E0075507E5C7650800A605807E27E50755E34
:107D1E00000E7EBEFF0E765A02D0756A766A73A486
:107D2E000ED073C060F0030E601601E0D2D875500D
:107D3E0076104EE09FD87506D8A07606F8D7755007
:107D4E00761006E0BED8D8A0760675507610FAE109
:107D5E0073C060F0030E60163BE07D50D96EDA6A98
:107D6E002D0EDF6E7D2A34D07BC060F07CC061F0BA
:107D7E00D89060366136D89060366136570E6024E2
:107D8E00F66E7F0E6120F76E09005AD86DC001F0B5
:107D9E006EC002F06FC003F070C004F0A6EC34F0B9
:107DAE0001C00EF002C00FF003C010F004C011F0BD
:107DBE000A0E126E136A146A156A41EC34F00E50F4
:107DCE00300F7E6E7D50D96EDA6A7EC0DFFFCAD765
:107DDE007B06D8A07C067B28C7E17C28C5E15AC06B
:107DEE00F6FF66D801E062D47D50D96EDA6ADF6A9A
:107DFE00000C7E50040D570EF324F66E7F0EF42009
:107E0E00F76E090012005AC0F6FF5BC0F7FF0800BC
:107E1E00F550120001C069F002C06AF003C06BF0A9
:107E2E0004C06CF069C00EF06AC00FF06BC010F0A9
:107E3E006CC011F00A0E126E136A146A156A0A0CDF
:107E4E00F5CF05F00900F5CF06F00900F5CF07F0E4
:107E5E000A00F5CF08F012000EC069F00FC06AF0EC
:107E6E0010C06BF011C06CF07D50D96EDA6A69509B
:107E7E00300F12007D50D96EDA6A300EDF6E7D2A19
:107E8E00300CF5506D5C0900F5506E580900F55038
:107E9E006F580900F5507058120069C001F06AC0A1
:107EAE0002F06BC003F06CC004F0056A066A1200A3
:107EBE005BC0F7FF5A4A5B2A0800F5CF7EF07E5072
:107ECE0012007D50D96EDA6A200EDF6E7D2A75069D
:107EDE00200C7D50D96EDA6A2D0EDF6E7D2A2D0CA8
:107EEE00000000803FCDCCCC3D0AD7233C6F1283DF
:107EFE003A17B7D138ACC52737BD37863595BFD6BB
:107F0E003377CC2B325F708930FFE6DB2E08E53CF1
:107F1E001E6042A20D0000803F000020410000C8FC
:107F2E004200007A4400401C460050C347002474AF
:107F3E00498096184B20BCBE4C286B6E4EF902152C
:107F4E0050EC78AD60CAF24971010000000A0000E1
:107F5E000064000000E803000010270000A0860166
:107F6E000040420F008096980000E1F50500CA9A85
:107F7E003B50726573737572653A20202020253050
:107F8E0031302E3566205073690A0A0054656D70C3
:107F9E00657261747572653A20253031302E356602
:107FAE0020B0430A004F70656E4669656C6420739D
:107FBE00656E736F72207465737465720A00537404
:107FCE00617475733A2020202020202534690A0020
:107FDE0053657269616C3A20202020202025366975
:107FEE000A005055432D52696F204C53464F0A00DC
:027FFE00000081
:020000040020DA
:08000000FFFFFFFFFFFFFFFF00
:020000040030CA
:0E000000FF08191EFF8180FF0FC00FE00F40A8
:00000001FF
